{
	"contracts/2_Owner.sol": {
		"Owner": {
			"abi": [
				{
					"inputs": [],
					"stateMutability": "nonpayable",
					"type": "constructor"
				},
				{
					"anonymous": false,
					"inputs": [
						{
							"indexed": true,
							"internalType": "address",
							"name": "oldOwner",
							"type": "address"
						},
						{
							"indexed": true,
							"internalType": "address",
							"name": "newOwner",
							"type": "address"
						}
					],
					"name": "OwnerSet",
					"type": "event"
				},
				{
					"inputs": [
						{
							"internalType": "address",
							"name": "newOwner",
							"type": "address"
						}
					],
					"name": "changeOwner",
					"outputs": [],
					"stateMutability": "nonpayable",
					"type": "function"
				},
				{
					"inputs": [],
					"name": "getOwner",
					"outputs": [
						{
							"internalType": "address",
							"name": "",
							"type": "address"
						}
					],
					"stateMutability": "view",
					"type": "function"
				}
			],
			"devdoc": {
				"details": "Set & change owner",
				"kind": "dev",
				"methods": {
					"changeOwner(address)": {
						"details": "Change owner",
						"params": {
							"newOwner": "address of new owner"
						}
					},
					"constructor": {
						"details": "Set contract deployer as owner"
					},
					"getOwner()": {
						"details": "Return owner address ",
						"returns": {
							"_0": "address of owner"
						}
					}
				},
				"title": "Owner",
				"version": 1
			},
			"evm": {
				"assembly": "    /* \"contracts/2_Owner.sol\":152:1650  contract Owner {... */\n  mstore(0x40, 0x80)\n    /* \"contracts/2_Owner.sol\":942:1176  constructor() {... */\n  callvalue\n  dup1\n  iszero\n  tag_1\n  jumpi\n  revert(0x00, 0x00)\ntag_1:\n  pop\n    /* \"contracts/2_Owner.sol\":966:1020  console.log(\"Owner contract deployed by:\", msg.sender) */\n  tag_4\n  mload(0x40)\n  dup1\n  0x40\n  add\n  0x40\n  mstore\n  dup1\n  0x1b\n  dup2\n  mstore\n  0x20\n  add\n  0x4f776e657220636f6e7472616374206465706c6f7965642062793a0000000000\n  dup2\n  mstore\n  pop\n    /* \"contracts/2_Owner.sol\":1009:1019  msg.sender */\n  caller\n    /* \"contracts/2_Owner.sol\":966:977  console.log */\n  shl(0x20, tag_5)\n    /* \"contracts/2_Owner.sol\":966:1020  console.log(\"Owner contract deployed by:\", msg.sender) */\n  0x20\n  shr\n  jump\t// in\ntag_4:\n    /* \"contracts/2_Owner.sol\":1038:1048  msg.sender */\n  caller\n    /* \"contracts/2_Owner.sol\":1030:1035  owner */\n  0x00\n  0x00\n    /* \"contracts/2_Owner.sol\":1030:1048  owner = msg.sender */\n  0x0100\n  exp\n  dup2\n  sload\n  dup2\n  0xffffffffffffffffffffffffffffffffffffffff\n  mul\n  not\n  and\n  swap1\n  dup4\n  0xffffffffffffffffffffffffffffffffffffffff\n  and\n  mul\n  or\n  swap1\n  sstore\n  pop\n    /* \"contracts/2_Owner.sol\":1163:1168  owner */\n  0x00\n  0x00\n  swap1\n  sload\n  swap1\n  0x0100\n  exp\n  swap1\n  div\n  0xffffffffffffffffffffffffffffffffffffffff\n  and\n    /* \"contracts/2_Owner.sol\":1142:1169  OwnerSet(address(0), owner) */\n  0xffffffffffffffffffffffffffffffffffffffff\n  and\n    /* \"contracts/2_Owner.sol\":1159:1160  0 */\n  0x00\n    /* \"contracts/2_Owner.sol\":1142:1169  OwnerSet(address(0), owner) */\n  0xffffffffffffffffffffffffffffffffffffffff\n  and\n  0x342827c97908e5e2f71151c08502a66d44b6f758e3ac2f1de95f02eb95f0a735\n  mload(0x40)\n  mload(0x40)\n  dup1\n  swap2\n  sub\n  swap1\n  log3\n    /* \"contracts/2_Owner.sol\":152:1650  contract Owner {... */\n  jump(tag_6)\n    /* \"hardhat/console.sol\":7471:7616  function log(string memory p0, address p1) internal pure {... */\ntag_5:\n    /* \"hardhat/console.sol\":7538:7609  _sendLogPayload(abi.encodeWithSignature(\"log(string,address)\", p0, p1)) */\n  tag_8\n    /* \"hardhat/console.sol\":7601:7603  p0 */\n  dup3\n    /* \"hardhat/console.sol\":7605:7607  p1 */\n  dup3\n    /* \"hardhat/console.sol\":7554:7608  abi.encodeWithSignature(\"log(string,address)\", p0, p1) */\n  add(0x24, mload(0x40))\n  tag_9\n  swap3\n  swap2\n  swap1\n  tag_10\n  jump\t// in\ntag_9:\n  mload(0x40)\n  0x20\n  dup2\n  dup4\n  sub\n  sub\n  dup2\n  mstore\n  swap1\n  0x40\n  mstore\n  and(not(0xffffffffffffffffffffffffffffffffffffffffffffffffffffffff), 0x319af33300000000000000000000000000000000000000000000000000000000)\n  0x20\n  dup3\n  add\n  dup1\n  mload\n  0xffffffffffffffffffffffffffffffffffffffffffffffffffffffff\n  dup4\n  dup2\n  dup4\n  and\n  or\n  dup4\n  mstore\n  pop\n  pop\n  pop\n  pop\n    /* \"hardhat/console.sol\":7538:7553  _sendLogPayload */\n  shl(0x20, tag_11)\n    /* \"hardhat/console.sol\":7538:7609  _sendLogPayload(abi.encodeWithSignature(\"log(string,address)\", p0, p1)) */\n  0x20\n  shr\n  jump\t// in\ntag_8:\n    /* \"hardhat/console.sol\":7471:7616  function log(string memory p0, address p1) internal pure {... */\n  pop\n  pop\n  jump\t// out\n    /* \"hardhat/console.sol\":851:980  function _sendLogPayload(bytes memory payload) internal pure {... */\ntag_11:\n    /* \"hardhat/console.sol\":922:973  _castToPure(_sendLogPayloadImplementation)(payload) */\n  tag_13\n    /* \"hardhat/console.sol\":965:972  payload */\n  dup2\n    /* \"hardhat/console.sol\":922:964  _castToPure(_sendLogPayloadImplementation) */\n  tag_14\n    /* \"hardhat/console.sol\":934:963  _sendLogPayloadImplementation */\n  or(tag_0_13, shl(0x20, tag_15))\n    /* \"hardhat/console.sol\":922:933  _castToPure */\n  shl(0x20, tag_16)\n    /* \"hardhat/console.sol\":922:964  _castToPure(_sendLogPayloadImplementation) */\n  0x20\n  shr\n  jump\t// in\ntag_14:\n    /* \"hardhat/console.sol\":922:973  _castToPure(_sendLogPayloadImplementation)(payload) */\n  0x20\n  shr\n  jump\t// in\ntag_13:\n    /* \"hardhat/console.sol\":851:980  function _sendLogPayload(bytes memory payload) internal pure {... */\n  pop\n  jump\t// out\n    /* \"hardhat/console.sol\":180:643  function _sendLogPayloadImplementation(bytes memory payload) internal view {... */\ntag_15:\n    /* \"hardhat/console.sol\":265:287  address consoleAddress */\n  0x00\n    /* \"hardhat/console.sol\":131:173  0x000000000000000000636F6e736F6c652e6c6f67 */\n  0x636f6e736f6c652e6c6f67\n    /* \"hardhat/console.sol\":265:305  address consoleAddress = CONSOLE_ADDRESS */\n  swap1\n  pop\n    /* \"hardhat/console.sol\":594:595  0 */\n  0x00\n    /* \"hardhat/console.sol\":571:572  0 */\n  0x00\n    /* \"hardhat/console.sol\":541:548  payload */\n  dup4\n    /* \"hardhat/console.sol\":535:549  mload(payload) */\n  mload\n    /* \"hardhat/console.sol\":510:512  32 */\n  0x20\n    /* \"hardhat/console.sol\":501:508  payload */\n  dup6\n    /* \"hardhat/console.sol\":497:513  add(payload, 32) */\n  add\n    /* \"hardhat/console.sol\":461:475  consoleAddress */\n  dup5\n    /* \"hardhat/console.sol\":434:439  gas() */\n  gas\n    /* \"hardhat/console.sol\":402:613  staticcall(... */\n  staticcall\n    /* \"hardhat/console.sol\":381:627  pop(... */\n  pop\n    /* \"hardhat/console.sol\":367:637  {... */\n  pop\n    /* \"hardhat/console.sol\":180:643  function _sendLogPayloadImplementation(bytes memory payload) internal view {... */\n  pop\n  jump\t// out\n    /* \"hardhat/console.sol\":649:845  function _castToPure(... */\ntag_16:\n    /* \"hardhat/console.sol\":748:781  function(bytes memory) pure fnOut */\n  or(tag_0_14, shl(0x20, tag_18))\n    /* \"hardhat/console.sol\":825:829  fnIn */\n  dup2\n    /* \"hardhat/console.sol\":816:829  fnOut := fnIn */\n  swap1\n  pop\n    /* \"hardhat/console.sol\":649:845  function _castToPure(... */\n  swap2\n  swap1\n  pop\n  jump\t// out\n    /* \"contracts/2_Owner.sol\":152:1650  contract Owner {... */\ntag_18:\n  tag_20\n  tag_21\n  jump\t// in\ntag_20:\n  jump\t// out\n    /* \"#utility.yul\":7:106   */\ntag_22:\n    /* \"#utility.yul\":59:65   */\n  0x00\n    /* \"#utility.yul\":93:98   */\n  dup2\n    /* \"#utility.yul\":87:99   */\n  mload\n    /* \"#utility.yul\":77:99   */\n  swap1\n  pop\n    /* \"#utility.yul\":7:106   */\n  swap2\n  swap1\n  pop\n  jump\t// out\n    /* \"#utility.yul\":112:281   */\ntag_23:\n    /* \"#utility.yul\":196:207   */\n  0x00\n    /* \"#utility.yul\":230:236   */\n  dup3\n    /* \"#utility.yul\":225:228   */\n  dup3\n    /* \"#utility.yul\":218:237   */\n  mstore\n    /* \"#utility.yul\":270:274   */\n  0x20\n    /* \"#utility.yul\":265:268   */\n  dup3\n    /* \"#utility.yul\":261:275   */\n  add\n    /* \"#utility.yul\":246:275   */\n  swap1\n  pop\n    /* \"#utility.yul\":112:281   */\n  swap3\n  swap2\n  pop\n  pop\n  jump\t// out\n    /* \"#utility.yul\":287:426   */\ntag_24:\n    /* \"#utility.yul\":376:382   */\n  dup3\n    /* \"#utility.yul\":371:374   */\n  dup2\n    /* \"#utility.yul\":366:369   */\n  dup4\n    /* \"#utility.yul\":360:383   */\n  mcopy\n    /* \"#utility.yul\":417:418   */\n  0x00\n    /* \"#utility.yul\":408:414   */\n  dup4\n    /* \"#utility.yul\":403:406   */\n  dup4\n    /* \"#utility.yul\":399:415   */\n  add\n    /* \"#utility.yul\":392:419   */\n  mstore\n    /* \"#utility.yul\":287:426   */\n  pop\n  pop\n  pop\n  jump\t// out\n    /* \"#utility.yul\":432:534   */\ntag_25:\n    /* \"#utility.yul\":473:479   */\n  0x00\n    /* \"#utility.yul\":524:526   */\n  0x1f\n    /* \"#utility.yul\":520:527   */\n  not\n    /* \"#utility.yul\":515:517   */\n  0x1f\n    /* \"#utility.yul\":508:513   */\n  dup4\n    /* \"#utility.yul\":504:518   */\n  add\n    /* \"#utility.yul\":500:528   */\n  and\n    /* \"#utility.yul\":490:528   */\n  swap1\n  pop\n    /* \"#utility.yul\":432:534   */\n  swap2\n  swap1\n  pop\n  jump\t// out\n    /* \"#utility.yul\":540:917   */\ntag_26:\n    /* \"#utility.yul\":628:631   */\n  0x00\n    /* \"#utility.yul\":656:695   */\n  tag_36\n    /* \"#utility.yul\":689:694   */\n  dup3\n    /* \"#utility.yul\":656:695   */\n  tag_22\n  jump\t// in\ntag_36:\n    /* \"#utility.yul\":711:782   */\n  tag_37\n    /* \"#utility.yul\":775:781   */\n  dup2\n    /* \"#utility.yul\":770:773   */\n  dup6\n    /* \"#utility.yul\":711:782   */\n  tag_23\n  jump\t// in\ntag_37:\n    /* \"#utility.yul\":704:782   */\n  swap4\n  pop\n    /* \"#utility.yul\":791:856   */\n  tag_38\n    /* \"#utility.yul\":849:855   */\n  dup2\n    /* \"#utility.yul\":844:847   */\n  dup6\n    /* \"#utility.yul\":837:841   */\n  0x20\n    /* \"#utility.yul\":830:835   */\n  dup7\n    /* \"#utility.yul\":826:842   */\n  add\n    /* \"#utility.yul\":791:856   */\n  tag_24\n  jump\t// in\ntag_38:\n    /* \"#utility.yul\":881:910   */\n  tag_39\n    /* \"#utility.yul\":903:909   */\n  dup2\n    /* \"#utility.yul\":881:910   */\n  tag_25\n  jump\t// in\ntag_39:\n    /* \"#utility.yul\":876:879   */\n  dup5\n    /* \"#utility.yul\":872:911   */\n  add\n    /* \"#utility.yul\":865:911   */\n  swap2\n  pop\n    /* \"#utility.yul\":632:917   */\n  pop\n    /* \"#utility.yul\":540:917   */\n  swap3\n  swap2\n  pop\n  pop\n  jump\t// out\n    /* \"#utility.yul\":923:1049   */\ntag_27:\n    /* \"#utility.yul\":960:967   */\n  0x00\n    /* \"#utility.yul\":1000:1042   */\n  0xffffffffffffffffffffffffffffffffffffffff\n    /* \"#utility.yul\":993:998   */\n  dup3\n    /* \"#utility.yul\":989:1043   */\n  and\n    /* \"#utility.yul\":978:1043   */\n  swap1\n  pop\n    /* \"#utility.yul\":923:1049   */\n  swap2\n  swap1\n  pop\n  jump\t// out\n    /* \"#utility.yul\":1055:1151   */\ntag_28:\n    /* \"#utility.yul\":1092:1099   */\n  0x00\n    /* \"#utility.yul\":1121:1145   */\n  tag_42\n    /* \"#utility.yul\":1139:1144   */\n  dup3\n    /* \"#utility.yul\":1121:1145   */\n  tag_27\n  jump\t// in\ntag_42:\n    /* \"#utility.yul\":1110:1145   */\n  swap1\n  pop\n    /* \"#utility.yul\":1055:1151   */\n  swap2\n  swap1\n  pop\n  jump\t// out\n    /* \"#utility.yul\":1157:1275   */\ntag_29:\n    /* \"#utility.yul\":1244:1268   */\n  tag_44\n    /* \"#utility.yul\":1262:1267   */\n  dup2\n    /* \"#utility.yul\":1244:1268   */\n  tag_28\n  jump\t// in\ntag_44:\n    /* \"#utility.yul\":1239:1242   */\n  dup3\n    /* \"#utility.yul\":1232:1269   */\n  mstore\n    /* \"#utility.yul\":1157:1275   */\n  pop\n  pop\n  jump\t// out\n    /* \"#utility.yul\":1281:1704   */\ntag_10:\n    /* \"#utility.yul\":1422:1426   */\n  0x00\n    /* \"#utility.yul\":1460:1462   */\n  0x40\n    /* \"#utility.yul\":1449:1458   */\n  dup3\n    /* \"#utility.yul\":1445:1463   */\n  add\n    /* \"#utility.yul\":1437:1463   */\n  swap1\n  pop\n    /* \"#utility.yul\":1509:1518   */\n  dup2\n    /* \"#utility.yul\":1503:1507   */\n  dup2\n    /* \"#utility.yul\":1499:1519   */\n  sub\n    /* \"#utility.yul\":1495:1496   */\n  0x00\n    /* \"#utility.yul\":1484:1493   */\n  dup4\n    /* \"#utility.yul\":1480:1497   */\n  add\n    /* \"#utility.yul\":1473:1520   */\n  mstore\n    /* \"#utility.yul\":1537:1615   */\n  tag_46\n    /* \"#utility.yul\":1610:1614   */\n  dup2\n    /* \"#utility.yul\":1601:1607   */\n  dup6\n    /* \"#utility.yul\":1537:1615   */\n  tag_26\n  jump\t// in\ntag_46:\n    /* \"#utility.yul\":1529:1615   */\n  swap1\n  pop\n    /* \"#utility.yul\":1625:1697   */\n  tag_47\n    /* \"#utility.yul\":1693:1695   */\n  0x20\n    /* \"#utility.yul\":1682:1691   */\n  dup4\n    /* \"#utility.yul\":1678:1696   */\n  add\n    /* \"#utility.yul\":1669:1675   */\n  dup5\n    /* \"#utility.yul\":1625:1697   */\n  tag_29\n  jump\t// in\ntag_47:\n    /* \"#utility.yul\":1281:1704   */\n  swap4\n  swap3\n  pop\n  pop\n  pop\n  jump\t// out\n    /* \"#utility.yul\":1710:1890   */\ntag_21:\n    /* \"#utility.yul\":1758:1835   */\n  0x4e487b7100000000000000000000000000000000000000000000000000000000\n    /* \"#utility.yul\":1755:1756   */\n  0x00\n    /* \"#utility.yul\":1748:1836   */\n  mstore\n    /* \"#utility.yul\":1855:1859   */\n  0x51\n    /* \"#utility.yul\":1852:1853   */\n  0x04\n    /* \"#utility.yul\":1845:1860   */\n  mstore\n    /* \"#utility.yul\":1879:1883   */\n  0x24\n    /* \"#utility.yul\":1876:1877   */\n  0x00\n    /* \"#utility.yul\":1869:1884   */\n  revert\n    /* \"contracts/2_Owner.sol\":152:1650  contract Owner {... */\ntag_6:\n  dataSize(sub_0)\n  dup1\n  dataOffset(sub_0)\n  0x00\n  codecopy\n  0x00\n  return\nstop\n\nsub_0: assembly {\n        /* \"contracts/2_Owner.sol\":152:1650  contract Owner {... */\n      mstore(0x40, 0x80)\n      callvalue\n      dup1\n      iszero\n      tag_1\n      jumpi\n      revert(0x00, 0x00)\n    tag_1:\n      pop\n      jumpi(tag_2, lt(calldatasize, 0x04))\n      shr(0xe0, calldataload(0x00))\n      dup1\n      0x893d20e8\n      eq\n      tag_3\n      jumpi\n      dup1\n      0xa6f9dae1\n      eq\n      tag_4\n      jumpi\n    tag_2:\n      revert(0x00, 0x00)\n        /* \"contracts/2_Owner.sol\":1567:1648  function getOwner() external view returns (address) {... */\n    tag_3:\n      tag_5\n      tag_6\n      jump\t// in\n    tag_5:\n      mload(0x40)\n      tag_7\n      swap2\n      swap1\n      tag_8\n      jump\t// in\n    tag_7:\n      mload(0x40)\n      dup1\n      swap2\n      sub\n      swap1\n      return\n        /* \"contracts/2_Owner.sol\":1267:1479  function changeOwner(address newOwner) public isOwner {... */\n    tag_4:\n      tag_9\n      0x04\n      dup1\n      calldatasize\n      sub\n      dup2\n      add\n      swap1\n      tag_10\n      swap2\n      swap1\n      tag_11\n      jump\t// in\n    tag_10:\n      tag_12\n      jump\t// in\n    tag_9:\n      stop\n        /* \"contracts/2_Owner.sol\":1567:1648  function getOwner() external view returns (address) {... */\n    tag_6:\n        /* \"contracts/2_Owner.sol\":1610:1617  address */\n      0x00\n        /* \"contracts/2_Owner.sol\":1636:1641  owner */\n      0x00\n      0x00\n      swap1\n      sload\n      swap1\n      0x0100\n      exp\n      swap1\n      div\n      0xffffffffffffffffffffffffffffffffffffffff\n      and\n        /* \"contracts/2_Owner.sol\":1629:1641  return owner */\n      swap1\n      pop\n        /* \"contracts/2_Owner.sol\":1567:1648  function getOwner() external view returns (address) {... */\n      swap1\n      jump\t// out\n        /* \"contracts/2_Owner.sol\":1267:1479  function changeOwner(address newOwner) public isOwner {... */\n    tag_12:\n        /* \"contracts/2_Owner.sol\":830:835  owner */\n      0x00\n      0x00\n      swap1\n      sload\n      swap1\n      0x0100\n      exp\n      swap1\n      div\n      0xffffffffffffffffffffffffffffffffffffffff\n      and\n        /* \"contracts/2_Owner.sol\":816:835  msg.sender == owner */\n      0xffffffffffffffffffffffffffffffffffffffff\n      and\n        /* \"contracts/2_Owner.sol\":816:826  msg.sender */\n      caller\n        /* \"contracts/2_Owner.sol\":816:835  msg.sender == owner */\n      0xffffffffffffffffffffffffffffffffffffffff\n      and\n      eq\n        /* \"contracts/2_Owner.sol\":808:859  require(msg.sender == owner, \"Caller is not owner\") */\n      tag_17\n      jumpi\n      mload(0x40)\n      0x08c379a000000000000000000000000000000000000000000000000000000000\n      dup2\n      mstore\n      0x04\n      add\n      tag_18\n      swap1\n      tag_19\n      jump\t// in\n    tag_18:\n      mload(0x40)\n      dup1\n      swap2\n      sub\n      swap1\n      revert\n    tag_17:\n        /* \"contracts/2_Owner.sol\":1359:1360  0 */\n      0x00\n        /* \"contracts/2_Owner.sol\":1339:1361  newOwner != address(0) */\n      0xffffffffffffffffffffffffffffffffffffffff\n      and\n        /* \"contracts/2_Owner.sol\":1339:1347  newOwner */\n      dup2\n        /* \"contracts/2_Owner.sol\":1339:1361  newOwner != address(0) */\n      0xffffffffffffffffffffffffffffffffffffffff\n      and\n      sub\n        /* \"contracts/2_Owner.sol\":1331:1406  require(newOwner != address(0), \"New owner should not be the zero address\") */\n      tag_21\n      jumpi\n      mload(0x40)\n      0x08c379a000000000000000000000000000000000000000000000000000000000\n      dup2\n      mstore\n      0x04\n      add\n      tag_22\n      swap1\n      tag_23\n      jump\t// in\n    tag_22:\n      mload(0x40)\n      dup1\n      swap2\n      sub\n      swap1\n      revert\n    tag_21:\n        /* \"contracts/2_Owner.sol\":1437:1445  newOwner */\n      dup1\n        /* \"contracts/2_Owner.sol\":1421:1446  OwnerSet(owner, newOwner) */\n      0xffffffffffffffffffffffffffffffffffffffff\n      and\n        /* \"contracts/2_Owner.sol\":1430:1435  owner */\n      0x00\n      0x00\n      swap1\n      sload\n      swap1\n      0x0100\n      exp\n      swap1\n      div\n      0xffffffffffffffffffffffffffffffffffffffff\n      and\n        /* \"contracts/2_Owner.sol\":1421:1446  OwnerSet(owner, newOwner) */\n      0xffffffffffffffffffffffffffffffffffffffff\n      and\n      0x342827c97908e5e2f71151c08502a66d44b6f758e3ac2f1de95f02eb95f0a735\n      mload(0x40)\n      mload(0x40)\n      dup1\n      swap2\n      sub\n      swap1\n      log3\n        /* \"contracts/2_Owner.sol\":1464:1472  newOwner */\n      dup1\n        /* \"contracts/2_Owner.sol\":1456:1461  owner */\n      0x00\n      0x00\n        /* \"contracts/2_Owner.sol\":1456:1472  owner = newOwner */\n      0x0100\n      exp\n      dup2\n      sload\n      dup2\n      0xffffffffffffffffffffffffffffffffffffffff\n      mul\n      not\n      and\n      swap1\n      dup4\n      0xffffffffffffffffffffffffffffffffffffffff\n      and\n      mul\n      or\n      swap1\n      sstore\n      pop\n        /* \"contracts/2_Owner.sol\":1267:1479  function changeOwner(address newOwner) public isOwner {... */\n      pop\n      jump\t// out\n        /* \"hardhat/console.sol\":180:643  function _sendLogPayloadImplementation(bytes memory payload) internal view {... */\n    tag_13:\n        /* \"hardhat/console.sol\":265:287  address consoleAddress */\n      0x00\n        /* \"hardhat/console.sol\":131:173  0x000000000000000000636F6e736F6c652e6c6f67 */\n      0x636f6e736f6c652e6c6f67\n        /* \"hardhat/console.sol\":265:305  address consoleAddress = CONSOLE_ADDRESS */\n      swap1\n      pop\n        /* \"hardhat/console.sol\":594:595  0 */\n      0x00\n        /* \"hardhat/console.sol\":571:572  0 */\n      0x00\n        /* \"hardhat/console.sol\":541:548  payload */\n      dup4\n        /* \"hardhat/console.sol\":535:549  mload(payload) */\n      mload\n        /* \"hardhat/console.sol\":510:512  32 */\n      0x20\n        /* \"hardhat/console.sol\":501:508  payload */\n      dup6\n        /* \"hardhat/console.sol\":497:513  add(payload, 32) */\n      add\n        /* \"hardhat/console.sol\":461:475  consoleAddress */\n      dup5\n        /* \"hardhat/console.sol\":434:439  gas() */\n      gas\n        /* \"hardhat/console.sol\":402:613  staticcall(... */\n      staticcall\n        /* \"hardhat/console.sol\":381:627  pop(... */\n      pop\n        /* \"hardhat/console.sol\":367:637  {... */\n      pop\n        /* \"hardhat/console.sol\":180:643  function _sendLogPayloadImplementation(bytes memory payload) internal view {... */\n      pop\n      jump\t// out\n    tag_14:\n      tag_25\n      tag_26\n      jump\t// in\n    tag_25:\n      jump\t// out\n        /* \"#utility.yul\":7:133   */\n    tag_27:\n        /* \"#utility.yul\":44:51   */\n      0x00\n        /* \"#utility.yul\":84:126   */\n      0xffffffffffffffffffffffffffffffffffffffff\n        /* \"#utility.yul\":77:82   */\n      dup3\n        /* \"#utility.yul\":73:127   */\n      and\n        /* \"#utility.yul\":62:127   */\n      swap1\n      pop\n        /* \"#utility.yul\":7:133   */\n      swap2\n      swap1\n      pop\n      jump\t// out\n        /* \"#utility.yul\":139:235   */\n    tag_28:\n        /* \"#utility.yul\":176:183   */\n      0x00\n        /* \"#utility.yul\":205:229   */\n      tag_43\n        /* \"#utility.yul\":223:228   */\n      dup3\n        /* \"#utility.yul\":205:229   */\n      tag_27\n      jump\t// in\n    tag_43:\n        /* \"#utility.yul\":194:229   */\n      swap1\n      pop\n        /* \"#utility.yul\":139:235   */\n      swap2\n      swap1\n      pop\n      jump\t// out\n        /* \"#utility.yul\":241:359   */\n    tag_29:\n        /* \"#utility.yul\":328:352   */\n      tag_45\n        /* \"#utility.yul\":346:351   */\n      dup2\n        /* \"#utility.yul\":328:352   */\n      tag_28\n      jump\t// in\n    tag_45:\n        /* \"#utility.yul\":323:326   */\n      dup3\n        /* \"#utility.yul\":316:353   */\n      mstore\n        /* \"#utility.yul\":241:359   */\n      pop\n      pop\n      jump\t// out\n        /* \"#utility.yul\":365:587   */\n    tag_8:\n        /* \"#utility.yul\":458:462   */\n      0x00\n        /* \"#utility.yul\":496:498   */\n      0x20\n        /* \"#utility.yul\":485:494   */\n      dup3\n        /* \"#utility.yul\":481:499   */\n      add\n        /* \"#utility.yul\":473:499   */\n      swap1\n      pop\n        /* \"#utility.yul\":509:580   */\n      tag_47\n        /* \"#utility.yul\":577:578   */\n      0x00\n        /* \"#utility.yul\":566:575   */\n      dup4\n        /* \"#utility.yul\":562:579   */\n      add\n        /* \"#utility.yul\":553:559   */\n      dup5\n        /* \"#utility.yul\":509:580   */\n      tag_29\n      jump\t// in\n    tag_47:\n        /* \"#utility.yul\":365:587   */\n      swap3\n      swap2\n      pop\n      pop\n      jump\t// out\n        /* \"#utility.yul\":674:791   */\n    tag_31:\n        /* \"#utility.yul\":783:784   */\n      0x00\n        /* \"#utility.yul\":780:781   */\n      0x00\n        /* \"#utility.yul\":773:785   */\n      revert\n        /* \"#utility.yul\":920:1042   */\n    tag_33:\n        /* \"#utility.yul\":993:1017   */\n      tag_52\n        /* \"#utility.yul\":1011:1016   */\n      dup2\n        /* \"#utility.yul\":993:1017   */\n      tag_28\n      jump\t// in\n    tag_52:\n        /* \"#utility.yul\":986:991   */\n      dup2\n        /* \"#utility.yul\":983:1018   */\n      eq\n        /* \"#utility.yul\":973:1036   */\n      tag_53\n      jumpi\n        /* \"#utility.yul\":1032:1033   */\n      0x00\n        /* \"#utility.yul\":1029:1030   */\n      0x00\n        /* \"#utility.yul\":1022:1034   */\n      revert\n        /* \"#utility.yul\":973:1036   */\n    tag_53:\n        /* \"#utility.yul\":920:1042   */\n      pop\n      jump\t// out\n        /* \"#utility.yul\":1048:1187   */\n    tag_34:\n        /* \"#utility.yul\":1094:1099   */\n      0x00\n        /* \"#utility.yul\":1132:1138   */\n      dup2\n        /* \"#utility.yul\":1119:1139   */\n      calldataload\n        /* \"#utility.yul\":1110:1139   */\n      swap1\n      pop\n        /* \"#utility.yul\":1148:1181   */\n      tag_55\n        /* \"#utility.yul\":1175:1180   */\n      dup2\n        /* \"#utility.yul\":1148:1181   */\n      tag_33\n      jump\t// in\n    tag_55:\n        /* \"#utility.yul\":1048:1187   */\n      swap3\n      swap2\n      pop\n      pop\n      jump\t// out\n        /* \"#utility.yul\":1193:1522   */\n    tag_11:\n        /* \"#utility.yul\":1252:1258   */\n      0x00\n        /* \"#utility.yul\":1301:1303   */\n      0x20\n        /* \"#utility.yul\":1289:1298   */\n      dup3\n        /* \"#utility.yul\":1280:1287   */\n      dup5\n        /* \"#utility.yul\":1276:1299   */\n      sub\n        /* \"#utility.yul\":1272:1304   */\n      slt\n        /* \"#utility.yul\":1269:1388   */\n      iszero\n      tag_57\n      jumpi\n        /* \"#utility.yul\":1307:1386   */\n      tag_58\n      tag_31\n      jump\t// in\n    tag_58:\n        /* \"#utility.yul\":1269:1388   */\n    tag_57:\n        /* \"#utility.yul\":1427:1428   */\n      0x00\n        /* \"#utility.yul\":1452:1505   */\n      tag_59\n        /* \"#utility.yul\":1497:1504   */\n      dup5\n        /* \"#utility.yul\":1488:1494   */\n      dup3\n        /* \"#utility.yul\":1477:1486   */\n      dup6\n        /* \"#utility.yul\":1473:1495   */\n      add\n        /* \"#utility.yul\":1452:1505   */\n      tag_34\n      jump\t// in\n    tag_59:\n        /* \"#utility.yul\":1442:1505   */\n      swap2\n      pop\n        /* \"#utility.yul\":1398:1515   */\n      pop\n        /* \"#utility.yul\":1193:1522   */\n      swap3\n      swap2\n      pop\n      pop\n      jump\t// out\n        /* \"#utility.yul\":1528:1697   */\n    tag_35:\n        /* \"#utility.yul\":1612:1623   */\n      0x00\n        /* \"#utility.yul\":1646:1652   */\n      dup3\n        /* \"#utility.yul\":1641:1644   */\n      dup3\n        /* \"#utility.yul\":1634:1653   */\n      mstore\n        /* \"#utility.yul\":1686:1690   */\n      0x20\n        /* \"#utility.yul\":1681:1684   */\n      dup3\n        /* \"#utility.yul\":1677:1691   */\n      add\n        /* \"#utility.yul\":1662:1691   */\n      swap1\n      pop\n        /* \"#utility.yul\":1528:1697   */\n      swap3\n      swap2\n      pop\n      pop\n      jump\t// out\n        /* \"#utility.yul\":1703:1872   */\n    tag_36:\n        /* \"#utility.yul\":1843:1864   */\n      0x43616c6c6572206973206e6f74206f776e657200000000000000000000000000\n        /* \"#utility.yul\":1839:1840   */\n      0x00\n        /* \"#utility.yul\":1831:1837   */\n      dup3\n        /* \"#utility.yul\":1827:1841   */\n      add\n        /* \"#utility.yul\":1820:1865   */\n      mstore\n        /* \"#utility.yul\":1703:1872   */\n      pop\n      jump\t// out\n        /* \"#utility.yul\":1878:2244   */\n    tag_37:\n        /* \"#utility.yul\":2020:2023   */\n      0x00\n        /* \"#utility.yul\":2041:2108   */\n      tag_63\n        /* \"#utility.yul\":2105:2107   */\n      0x13\n        /* \"#utility.yul\":2100:2103   */\n      dup4\n        /* \"#utility.yul\":2041:2108   */\n      tag_35\n      jump\t// in\n    tag_63:\n        /* \"#utility.yul\":2034:2108   */\n      swap2\n      pop\n        /* \"#utility.yul\":2117:2210   */\n      tag_64\n        /* \"#utility.yul\":2206:2209   */\n      dup3\n        /* \"#utility.yul\":2117:2210   */\n      tag_36\n      jump\t// in\n    tag_64:\n        /* \"#utility.yul\":2235:2237   */\n      0x20\n        /* \"#utility.yul\":2230:2233   */\n      dup3\n        /* \"#utility.yul\":2226:2238   */\n      add\n        /* \"#utility.yul\":2219:2238   */\n      swap1\n      pop\n        /* \"#utility.yul\":1878:2244   */\n      swap2\n      swap1\n      pop\n      jump\t// out\n        /* \"#utility.yul\":2250:2669   */\n    tag_19:\n        /* \"#utility.yul\":2416:2420   */\n      0x00\n        /* \"#utility.yul\":2454:2456   */\n      0x20\n        /* \"#utility.yul\":2443:2452   */\n      dup3\n        /* \"#utility.yul\":2439:2457   */\n      add\n        /* \"#utility.yul\":2431:2457   */\n      swap1\n      pop\n        /* \"#utility.yul\":2503:2512   */\n      dup2\n        /* \"#utility.yul\":2497:2501   */\n      dup2\n        /* \"#utility.yul\":2493:2513   */\n      sub\n        /* \"#utility.yul\":2489:2490   */\n      0x00\n        /* \"#utility.yul\":2478:2487   */\n      dup4\n        /* \"#utility.yul\":2474:2491   */\n      add\n        /* \"#utility.yul\":2467:2514   */\n      mstore\n        /* \"#utility.yul\":2531:2662   */\n      tag_66\n        /* \"#utility.yul\":2657:2661   */\n      dup2\n        /* \"#utility.yul\":2531:2662   */\n      tag_37\n      jump\t// in\n    tag_66:\n        /* \"#utility.yul\":2523:2662   */\n      swap1\n      pop\n        /* \"#utility.yul\":2250:2669   */\n      swap2\n      swap1\n      pop\n      jump\t// out\n        /* \"#utility.yul\":2675:2902   */\n    tag_38:\n        /* \"#utility.yul\":2815:2849   */\n      0x4e6577206f776e65722073686f756c64206e6f7420626520746865207a65726f\n        /* \"#utility.yul\":2811:2812   */\n      0x00\n        /* \"#utility.yul\":2803:2809   */\n      dup3\n        /* \"#utility.yul\":2799:2813   */\n      add\n        /* \"#utility.yul\":2792:2850   */\n      mstore\n        /* \"#utility.yul\":2884:2894   */\n      0x2061646472657373000000000000000000000000000000000000000000000000\n        /* \"#utility.yul\":2879:2881   */\n      0x20\n        /* \"#utility.yul\":2871:2877   */\n      dup3\n        /* \"#utility.yul\":2867:2882   */\n      add\n        /* \"#utility.yul\":2860:2895   */\n      mstore\n        /* \"#utility.yul\":2675:2902   */\n      pop\n      jump\t// out\n        /* \"#utility.yul\":2908:3274   */\n    tag_39:\n        /* \"#utility.yul\":3050:3053   */\n      0x00\n        /* \"#utility.yul\":3071:3138   */\n      tag_69\n        /* \"#utility.yul\":3135:3137   */\n      0x28\n        /* \"#utility.yul\":3130:3133   */\n      dup4\n        /* \"#utility.yul\":3071:3138   */\n      tag_35\n      jump\t// in\n    tag_69:\n        /* \"#utility.yul\":3064:3138   */\n      swap2\n      pop\n        /* \"#utility.yul\":3147:3240   */\n      tag_70\n        /* \"#utility.yul\":3236:3239   */\n      dup3\n        /* \"#utility.yul\":3147:3240   */\n      tag_38\n      jump\t// in\n    tag_70:\n        /* \"#utility.yul\":3265:3267   */\n      0x40\n        /* \"#utility.yul\":3260:3263   */\n      dup3\n        /* \"#utility.yul\":3256:3268   */\n      add\n        /* \"#utility.yul\":3249:3268   */\n      swap1\n      pop\n        /* \"#utility.yul\":2908:3274   */\n      swap2\n      swap1\n      pop\n      jump\t// out\n        /* \"#utility.yul\":3280:3699   */\n    tag_23:\n        /* \"#utility.yul\":3446:3450   */\n      0x00\n        /* \"#utility.yul\":3484:3486   */\n      0x20\n        /* \"#utility.yul\":3473:3482   */\n      dup3\n        /* \"#utility.yul\":3469:3487   */\n      add\n        /* \"#utility.yul\":3461:3487   */\n      swap1\n      pop\n        /* \"#utility.yul\":3533:3542   */\n      dup2\n        /* \"#utility.yul\":3527:3531   */\n      dup2\n        /* \"#utility.yul\":3523:3543   */\n      sub\n        /* \"#utility.yul\":3519:3520   */\n      0x00\n        /* \"#utility.yul\":3508:3517   */\n      dup4\n        /* \"#utility.yul\":3504:3521   */\n      add\n        /* \"#utility.yul\":3497:3544   */\n      mstore\n        /* \"#utility.yul\":3561:3692   */\n      tag_72\n        /* \"#utility.yul\":3687:3691   */\n      dup2\n        /* \"#utility.yul\":3561:3692   */\n      tag_39\n      jump\t// in\n    tag_72:\n        /* \"#utility.yul\":3553:3692   */\n      swap1\n      pop\n        /* \"#utility.yul\":3280:3699   */\n      swap2\n      swap1\n      pop\n      jump\t// out\n        /* \"#utility.yul\":3705:3885   */\n    tag_26:\n        /* \"#utility.yul\":3753:3830   */\n      0x4e487b7100000000000000000000000000000000000000000000000000000000\n        /* \"#utility.yul\":3750:3751   */\n      0x00\n        /* \"#utility.yul\":3743:3831   */\n      mstore\n        /* \"#utility.yul\":3850:3854   */\n      0x51\n        /* \"#utility.yul\":3847:3848   */\n      0x04\n        /* \"#utility.yul\":3840:3855   */\n      mstore\n        /* \"#utility.yul\":3874:3878   */\n      0x24\n        /* \"#utility.yul\":3871:3872   */\n      0x00\n        /* \"#utility.yul\":3864:3879   */\n      revert\n\n    auxdata: 0xa264697066735822122004587e3f3a29b6877a676a9b1bebc91b065bfc61664c20aa33d1466de8071fa364736f6c634300081e0033\n}\n",
				"bytecode": {
					"linkReferences": {},
					"object": "608060405234801561000f575f5ffd5b506100556040518060400160405280601b81526020017f4f776e657220636f6e7472616374206465706c6f7965642062793a00000000008152503361011360201b60201c565b335f5f6101000a81548173ffffffffffffffffffffffffffffffffffffffff021916908373ffffffffffffffffffffffffffffffffffffffff1602179055505f5f9054906101000a900473ffffffffffffffffffffffffffffffffffffffff1673ffffffffffffffffffffffffffffffffffffffff165f73ffffffffffffffffffffffffffffffffffffffff167f342827c97908e5e2f71151c08502a66d44b6f758e3ac2f1de95f02eb95f0a73560405160405180910390a361031e565b6101b182826040516024016101299291906102c3565b6040516020818303038152906040527f319af333000000000000000000000000000000000000000000000000000000007bffffffffffffffffffffffffffffffffffffffffffffffffffffffff19166020820180517bffffffffffffffffffffffffffffffffffffffffffffffffffffffff83818316178352505050506101b560201b60201c565b5050565b6101d6816101d16101d960201b610251176101f860201b60201c565b60201c565b50565b5f6a636f6e736f6c652e6c6f6790505f5f835160208501845afa505050565b61020a60201b61027017819050919050565b6102126102f1565b565b5f81519050919050565b5f82825260208201905092915050565b8281835e5f83830152505050565b5f601f19601f8301169050919050565b5f61025682610214565b610260818561021e565b935061027081856020860161022e565b6102798161023c565b840191505092915050565b5f73ffffffffffffffffffffffffffffffffffffffff82169050919050565b5f6102ad82610284565b9050919050565b6102bd816102a3565b82525050565b5f6040820190508181035f8301526102db818561024c565b90506102ea60208301846102b4565b9392505050565b7f4e487b71000000000000000000000000000000000000000000000000000000005f52605160045260245ffd5b6104948061032b5f395ff3fe608060405234801561000f575f5ffd5b5060043610610034575f3560e01c8063893d20e814610038578063a6f9dae114610056575b5f5ffd5b610040610072565b60405161004d91906102b9565b60405180910390f35b610070600480360381019061006b9190610300565b610099565b005b5f5f5f9054906101000a900473ffffffffffffffffffffffffffffffffffffffff16905090565b5f5f9054906101000a900473ffffffffffffffffffffffffffffffffffffffff1673ffffffffffffffffffffffffffffffffffffffff163373ffffffffffffffffffffffffffffffffffffffff1614610127576040517f08c379a000000000000000000000000000000000000000000000000000000000815260040161011e90610385565b60405180910390fd5b5f73ffffffffffffffffffffffffffffffffffffffff168173ffffffffffffffffffffffffffffffffffffffff1603610195576040517f08c379a000000000000000000000000000000000000000000000000000000000815260040161018c90610413565b60405180910390fd5b8073ffffffffffffffffffffffffffffffffffffffff165f5f9054906101000a900473ffffffffffffffffffffffffffffffffffffffff1673ffffffffffffffffffffffffffffffffffffffff167f342827c97908e5e2f71151c08502a66d44b6f758e3ac2f1de95f02eb95f0a73560405160405180910390a3805f5f6101000a81548173ffffffffffffffffffffffffffffffffffffffff021916908373ffffffffffffffffffffffffffffffffffffffff16021790555050565b5f6a636f6e736f6c652e6c6f6790505f5f835160208501845afa505050565b610278610431565b565b5f73ffffffffffffffffffffffffffffffffffffffff82169050919050565b5f6102a38261027a565b9050919050565b6102b381610299565b82525050565b5f6020820190506102cc5f8301846102aa565b92915050565b5f5ffd5b6102df81610299565b81146102e9575f5ffd5b50565b5f813590506102fa816102d6565b92915050565b5f60208284031215610315576103146102d2565b5b5f610322848285016102ec565b91505092915050565b5f82825260208201905092915050565b7f43616c6c6572206973206e6f74206f776e6572000000000000000000000000005f82015250565b5f61036f60138361032b565b915061037a8261033b565b602082019050919050565b5f6020820190508181035f83015261039c81610363565b9050919050565b7f4e6577206f776e65722073686f756c64206e6f7420626520746865207a65726f5f8201527f2061646472657373000000000000000000000000000000000000000000000000602082015250565b5f6103fd60288361032b565b9150610408826103a3565b604082019050919050565b5f6020820190508181035f83015261042a816103f1565b9050919050565b7f4e487b71000000000000000000000000000000000000000000000000000000005f52605160045260245ffdfea264697066735822122004587e3f3a29b6877a676a9b1bebc91b065bfc61664c20aa33d1466de8071fa364736f6c634300081e0033",
					"opcodes": "PUSH1 0x80 PUSH1 0x40 MSTORE CALLVALUE DUP1 ISZERO PUSH2 0xF JUMPI PUSH0 PUSH0 REVERT JUMPDEST POP PUSH2 0x55 PUSH1 0x40 MLOAD DUP1 PUSH1 0x40 ADD PUSH1 0x40 MSTORE DUP1 PUSH1 0x1B DUP2 MSTORE PUSH1 0x20 ADD PUSH32 0x4F776E657220636F6E7472616374206465706C6F7965642062793A0000000000 DUP2 MSTORE POP CALLER PUSH2 0x113 PUSH1 0x20 SHL PUSH1 0x20 SHR JUMP JUMPDEST CALLER PUSH0 PUSH0 PUSH2 0x100 EXP DUP2 SLOAD DUP2 PUSH20 0xFFFFFFFFFFFFFFFFFFFFFFFFFFFFFFFFFFFFFFFF MUL NOT AND SWAP1 DUP4 PUSH20 0xFFFFFFFFFFFFFFFFFFFFFFFFFFFFFFFFFFFFFFFF AND MUL OR SWAP1 SSTORE POP PUSH0 PUSH0 SWAP1 SLOAD SWAP1 PUSH2 0x100 EXP SWAP1 DIV PUSH20 0xFFFFFFFFFFFFFFFFFFFFFFFFFFFFFFFFFFFFFFFF AND PUSH20 0xFFFFFFFFFFFFFFFFFFFFFFFFFFFFFFFFFFFFFFFF AND PUSH0 PUSH20 0xFFFFFFFFFFFFFFFFFFFFFFFFFFFFFFFFFFFFFFFF AND PUSH32 0x342827C97908E5E2F71151C08502A66D44B6F758E3AC2F1DE95F02EB95F0A735 PUSH1 0x40 MLOAD PUSH1 0x40 MLOAD DUP1 SWAP2 SUB SWAP1 LOG3 PUSH2 0x31E JUMP JUMPDEST PUSH2 0x1B1 DUP3 DUP3 PUSH1 0x40 MLOAD PUSH1 0x24 ADD PUSH2 0x129 SWAP3 SWAP2 SWAP1 PUSH2 0x2C3 JUMP JUMPDEST PUSH1 0x40 MLOAD PUSH1 0x20 DUP2 DUP4 SUB SUB DUP2 MSTORE SWAP1 PUSH1 0x40 MSTORE PUSH32 0x319AF33300000000000000000000000000000000000000000000000000000000 PUSH28 0xFFFFFFFFFFFFFFFFFFFFFFFFFFFFFFFFFFFFFFFFFFFFFFFFFFFFFFFF NOT AND PUSH1 0x20 DUP3 ADD DUP1 MLOAD PUSH28 0xFFFFFFFFFFFFFFFFFFFFFFFFFFFFFFFFFFFFFFFFFFFFFFFFFFFFFFFF DUP4 DUP2 DUP4 AND OR DUP4 MSTORE POP POP POP POP PUSH2 0x1B5 PUSH1 0x20 SHL PUSH1 0x20 SHR JUMP JUMPDEST POP POP JUMP JUMPDEST PUSH2 0x1D6 DUP2 PUSH2 0x1D1 PUSH2 0x1D9 PUSH1 0x20 SHL PUSH2 0x251 OR PUSH2 0x1F8 PUSH1 0x20 SHL PUSH1 0x20 SHR JUMP JUMPDEST PUSH1 0x20 SHR JUMP JUMPDEST POP JUMP JUMPDEST PUSH0 PUSH11 0x636F6E736F6C652E6C6F67 SWAP1 POP PUSH0 PUSH0 DUP4 MLOAD PUSH1 0x20 DUP6 ADD DUP5 GAS STATICCALL POP POP POP JUMP JUMPDEST PUSH2 0x20A PUSH1 0x20 SHL PUSH2 0x270 OR DUP2 SWAP1 POP SWAP2 SWAP1 POP JUMP JUMPDEST PUSH2 0x212 PUSH2 0x2F1 JUMP JUMPDEST JUMP JUMPDEST PUSH0 DUP2 MLOAD SWAP1 POP SWAP2 SWAP1 POP JUMP JUMPDEST PUSH0 DUP3 DUP3 MSTORE PUSH1 0x20 DUP3 ADD SWAP1 POP SWAP3 SWAP2 POP POP JUMP JUMPDEST DUP3 DUP2 DUP4 MCOPY PUSH0 DUP4 DUP4 ADD MSTORE POP POP POP JUMP JUMPDEST PUSH0 PUSH1 0x1F NOT PUSH1 0x1F DUP4 ADD AND SWAP1 POP SWAP2 SWAP1 POP JUMP JUMPDEST PUSH0 PUSH2 0x256 DUP3 PUSH2 0x214 JUMP JUMPDEST PUSH2 0x260 DUP2 DUP6 PUSH2 0x21E JUMP JUMPDEST SWAP4 POP PUSH2 0x270 DUP2 DUP6 PUSH1 0x20 DUP7 ADD PUSH2 0x22E JUMP JUMPDEST PUSH2 0x279 DUP2 PUSH2 0x23C JUMP JUMPDEST DUP5 ADD SWAP2 POP POP SWAP3 SWAP2 POP POP JUMP JUMPDEST PUSH0 PUSH20 0xFFFFFFFFFFFFFFFFFFFFFFFFFFFFFFFFFFFFFFFF DUP3 AND SWAP1 POP SWAP2 SWAP1 POP JUMP JUMPDEST PUSH0 PUSH2 0x2AD DUP3 PUSH2 0x284 JUMP JUMPDEST SWAP1 POP SWAP2 SWAP1 POP JUMP JUMPDEST PUSH2 0x2BD DUP2 PUSH2 0x2A3 JUMP JUMPDEST DUP3 MSTORE POP POP JUMP JUMPDEST PUSH0 PUSH1 0x40 DUP3 ADD SWAP1 POP DUP2 DUP2 SUB PUSH0 DUP4 ADD MSTORE PUSH2 0x2DB DUP2 DUP6 PUSH2 0x24C JUMP JUMPDEST SWAP1 POP PUSH2 0x2EA PUSH1 0x20 DUP4 ADD DUP5 PUSH2 0x2B4 JUMP JUMPDEST SWAP4 SWAP3 POP POP POP JUMP JUMPDEST PUSH32 0x4E487B7100000000000000000000000000000000000000000000000000000000 PUSH0 MSTORE PUSH1 0x51 PUSH1 0x4 MSTORE PUSH1 0x24 PUSH0 REVERT JUMPDEST PUSH2 0x494 DUP1 PUSH2 0x32B PUSH0 CODECOPY PUSH0 RETURN INVALID PUSH1 0x80 PUSH1 0x40 MSTORE CALLVALUE DUP1 ISZERO PUSH2 0xF JUMPI PUSH0 PUSH0 REVERT JUMPDEST POP PUSH1 0x4 CALLDATASIZE LT PUSH2 0x34 JUMPI PUSH0 CALLDATALOAD PUSH1 0xE0 SHR DUP1 PUSH4 0x893D20E8 EQ PUSH2 0x38 JUMPI DUP1 PUSH4 0xA6F9DAE1 EQ PUSH2 0x56 JUMPI JUMPDEST PUSH0 PUSH0 REVERT JUMPDEST PUSH2 0x40 PUSH2 0x72 JUMP JUMPDEST PUSH1 0x40 MLOAD PUSH2 0x4D SWAP2 SWAP1 PUSH2 0x2B9 JUMP JUMPDEST PUSH1 0x40 MLOAD DUP1 SWAP2 SUB SWAP1 RETURN JUMPDEST PUSH2 0x70 PUSH1 0x4 DUP1 CALLDATASIZE SUB DUP2 ADD SWAP1 PUSH2 0x6B SWAP2 SWAP1 PUSH2 0x300 JUMP JUMPDEST PUSH2 0x99 JUMP JUMPDEST STOP JUMPDEST PUSH0 PUSH0 PUSH0 SWAP1 SLOAD SWAP1 PUSH2 0x100 EXP SWAP1 DIV PUSH20 0xFFFFFFFFFFFFFFFFFFFFFFFFFFFFFFFFFFFFFFFF AND SWAP1 POP SWAP1 JUMP JUMPDEST PUSH0 PUSH0 SWAP1 SLOAD SWAP1 PUSH2 0x100 EXP SWAP1 DIV PUSH20 0xFFFFFFFFFFFFFFFFFFFFFFFFFFFFFFFFFFFFFFFF AND PUSH20 0xFFFFFFFFFFFFFFFFFFFFFFFFFFFFFFFFFFFFFFFF AND CALLER PUSH20 0xFFFFFFFFFFFFFFFFFFFFFFFFFFFFFFFFFFFFFFFF AND EQ PUSH2 0x127 JUMPI PUSH1 0x40 MLOAD PUSH32 0x8C379A000000000000000000000000000000000000000000000000000000000 DUP2 MSTORE PUSH1 0x4 ADD PUSH2 0x11E SWAP1 PUSH2 0x385 JUMP JUMPDEST PUSH1 0x40 MLOAD DUP1 SWAP2 SUB SWAP1 REVERT JUMPDEST PUSH0 PUSH20 0xFFFFFFFFFFFFFFFFFFFFFFFFFFFFFFFFFFFFFFFF AND DUP2 PUSH20 0xFFFFFFFFFFFFFFFFFFFFFFFFFFFFFFFFFFFFFFFF AND SUB PUSH2 0x195 JUMPI PUSH1 0x40 MLOAD PUSH32 0x8C379A000000000000000000000000000000000000000000000000000000000 DUP2 MSTORE PUSH1 0x4 ADD PUSH2 0x18C SWAP1 PUSH2 0x413 JUMP JUMPDEST PUSH1 0x40 MLOAD DUP1 SWAP2 SUB SWAP1 REVERT JUMPDEST DUP1 PUSH20 0xFFFFFFFFFFFFFFFFFFFFFFFFFFFFFFFFFFFFFFFF AND PUSH0 PUSH0 SWAP1 SLOAD SWAP1 PUSH2 0x100 EXP SWAP1 DIV PUSH20 0xFFFFFFFFFFFFFFFFFFFFFFFFFFFFFFFFFFFFFFFF AND PUSH20 0xFFFFFFFFFFFFFFFFFFFFFFFFFFFFFFFFFFFFFFFF AND PUSH32 0x342827C97908E5E2F71151C08502A66D44B6F758E3AC2F1DE95F02EB95F0A735 PUSH1 0x40 MLOAD PUSH1 0x40 MLOAD DUP1 SWAP2 SUB SWAP1 LOG3 DUP1 PUSH0 PUSH0 PUSH2 0x100 EXP DUP2 SLOAD DUP2 PUSH20 0xFFFFFFFFFFFFFFFFFFFFFFFFFFFFFFFFFFFFFFFF MUL NOT AND SWAP1 DUP4 PUSH20 0xFFFFFFFFFFFFFFFFFFFFFFFFFFFFFFFFFFFFFFFF AND MUL OR SWAP1 SSTORE POP POP JUMP JUMPDEST PUSH0 PUSH11 0x636F6E736F6C652E6C6F67 SWAP1 POP PUSH0 PUSH0 DUP4 MLOAD PUSH1 0x20 DUP6 ADD DUP5 GAS STATICCALL POP POP POP JUMP JUMPDEST PUSH2 0x278 PUSH2 0x431 JUMP JUMPDEST JUMP JUMPDEST PUSH0 PUSH20 0xFFFFFFFFFFFFFFFFFFFFFFFFFFFFFFFFFFFFFFFF DUP3 AND SWAP1 POP SWAP2 SWAP1 POP JUMP JUMPDEST PUSH0 PUSH2 0x2A3 DUP3 PUSH2 0x27A JUMP JUMPDEST SWAP1 POP SWAP2 SWAP1 POP JUMP JUMPDEST PUSH2 0x2B3 DUP2 PUSH2 0x299 JUMP JUMPDEST DUP3 MSTORE POP POP JUMP JUMPDEST PUSH0 PUSH1 0x20 DUP3 ADD SWAP1 POP PUSH2 0x2CC PUSH0 DUP4 ADD DUP5 PUSH2 0x2AA JUMP JUMPDEST SWAP3 SWAP2 POP POP JUMP JUMPDEST PUSH0 PUSH0 REVERT JUMPDEST PUSH2 0x2DF DUP2 PUSH2 0x299 JUMP JUMPDEST DUP2 EQ PUSH2 0x2E9 JUMPI PUSH0 PUSH0 REVERT JUMPDEST POP JUMP JUMPDEST PUSH0 DUP2 CALLDATALOAD SWAP1 POP PUSH2 0x2FA DUP2 PUSH2 0x2D6 JUMP JUMPDEST SWAP3 SWAP2 POP POP JUMP JUMPDEST PUSH0 PUSH1 0x20 DUP3 DUP5 SUB SLT ISZERO PUSH2 0x315 JUMPI PUSH2 0x314 PUSH2 0x2D2 JUMP JUMPDEST JUMPDEST PUSH0 PUSH2 0x322 DUP5 DUP3 DUP6 ADD PUSH2 0x2EC JUMP JUMPDEST SWAP2 POP POP SWAP3 SWAP2 POP POP JUMP JUMPDEST PUSH0 DUP3 DUP3 MSTORE PUSH1 0x20 DUP3 ADD SWAP1 POP SWAP3 SWAP2 POP POP JUMP JUMPDEST PUSH32 0x43616C6C6572206973206E6F74206F776E657200000000000000000000000000 PUSH0 DUP3 ADD MSTORE POP JUMP JUMPDEST PUSH0 PUSH2 0x36F PUSH1 0x13 DUP4 PUSH2 0x32B JUMP JUMPDEST SWAP2 POP PUSH2 0x37A DUP3 PUSH2 0x33B JUMP JUMPDEST PUSH1 0x20 DUP3 ADD SWAP1 POP SWAP2 SWAP1 POP JUMP JUMPDEST PUSH0 PUSH1 0x20 DUP3 ADD SWAP1 POP DUP2 DUP2 SUB PUSH0 DUP4 ADD MSTORE PUSH2 0x39C DUP2 PUSH2 0x363 JUMP JUMPDEST SWAP1 POP SWAP2 SWAP1 POP JUMP JUMPDEST PUSH32 0x4E6577206F776E65722073686F756C64206E6F7420626520746865207A65726F PUSH0 DUP3 ADD MSTORE PUSH32 0x2061646472657373000000000000000000000000000000000000000000000000 PUSH1 0x20 DUP3 ADD MSTORE POP JUMP JUMPDEST PUSH0 PUSH2 0x3FD PUSH1 0x28 DUP4 PUSH2 0x32B JUMP JUMPDEST SWAP2 POP PUSH2 0x408 DUP3 PUSH2 0x3A3 JUMP JUMPDEST PUSH1 0x40 DUP3 ADD SWAP1 POP SWAP2 SWAP1 POP JUMP JUMPDEST PUSH0 PUSH1 0x20 DUP3 ADD SWAP1 POP DUP2 DUP2 SUB PUSH0 DUP4 ADD MSTORE PUSH2 0x42A DUP2 PUSH2 0x3F1 JUMP JUMPDEST SWAP1 POP SWAP2 SWAP1 POP JUMP JUMPDEST PUSH32 0x4E487B7100000000000000000000000000000000000000000000000000000000 PUSH0 MSTORE PUSH1 0x51 PUSH1 0x4 MSTORE PUSH1 0x24 PUSH0 REVERT INVALID LOG2 PUSH5 0x6970667358 0x22 SLT KECCAK256 DIV PC PUSH31 0x3F3A29B6877A676A9B1BEBC91B065BFC61664C20AA33D1466DE8071FA36473 PUSH16 0x6C634300081E00330000000000000000 "
				},
				"gasEstimates": {
					"creation": {
						"codeDepositCost": "234400",
						"executionCost": "infinite",
						"totalCost": "infinite"
					},
					"external": {
						"changeOwner(address)": "30595",
						"getOwner()": "2492"
					}
				},
				"methodIdentifiers": {
					"changeOwner(address)": "a6f9dae1",
					"getOwner()": "893d20e8"
				}
			},
			"storageLayout": {
				"storage": [
					{
						"astId": 5,
						"contract": "contracts/2_Owner.sol:Owner",
						"label": "owner",
						"offset": 0,
						"slot": "0",
						"type": "t_address"
					}
				],
				"types": {
					"t_address": {
						"encoding": "inplace",
						"label": "address",
						"numberOfBytes": "20"
					}
				}
			},
			"userdoc": {
				"kind": "user",
				"methods": {},
				"version": 1
			}
		}
	}
}